:100000000C9467010C9498010C9498010C9498013D
:100010000C9498010C9498010C9498010C949801FC
:100020000C9498010C9498010C9498010C949801EC
:100030000C9498010C9498010C9498010C949801DC
:100040000C9498010C9498010C9498010C949801CC
:100050000C9498010C9498010C9498010C94AE0C9B
:100060000C9498010C94690F0C94910E0C949801C7
:100070000C9498010C9498010C9498010C9498019C
:100080000C9498010C9498010C9498010C9498018C
:100090000C94360F0C94520E0C9498010C947E081C
:1000A0000C9498010C9498010C9498010C9498016C
:1000B0000C9498010C9498010C9498010C9498015C
:1000C0000C9498010C9498010C9498010C94030FD3
:1000D0000C94130E0C9498010C94D00E0C94D40D27
:1000E0000C949801EF06F206E506E9062907F606E4
:1000F000FA060007040708070E0712071607290764
:100100001C07200724070C948A0B0C947C0A0C947F
:10011000C70A0C94E9060C9420070C946D020C9409
:10012000F2060C9400070C94140B0C949A0A0C948D
:1001300004070C94FA060C94090B0C941C070C94FD
:100140008B0C0C94F6060C9424070C94E5060C9486
:10015000B70B0C94500B0C94A20A0C94B50A0C9497
:10016000E60B0C949A010C9408070C948B0A0C94DF
:100170004D040C94ED0B0C94B2110C940E070C94DE
:1001800029070C9416070C94E90B0C94CE0D0C94D3
:100190007D0A0C949B010C94340B0C94220C0C944F
:1001A000AA110C94EF060C94120700002100240001
:1001B00027002A002D003000330001010000040157
:1001C00007010A0100002200250028002B002E0054
:1001D0003100340002010000050108010B0100009C
:1001E00020002300260029002C002F0032000001EF
:1001F00000000301060109010505050507050808BA
:100200000808020202020A0A0808040404040101A0
:1002100001010101010103030303030303030407B5
:1002200007070C0C0C0C0C0C0C0C0202020206064C
:100230000606060606060B0B0B0B0B0B0B0B01023F
:1002400010202008081020401020408002010201E8
:1002500008040201010204081020408080402010A0
:1002600008040201800402018040201008040201F9
:100270000804020101020408102040800102040861
:10028000102040800000090A02080B0C0D0706032D
:100290000401000000000000000000000000000059
:1002A000000000000000000000000000000000004E
:1002B00011100F000000000000000000000000000E
:1002C00000000000000000000000B211AA1111247B
:1002D0001FBECFEFD1E2DEBFCDBF00E00CBF13E009
:1002E000A0E0B2E0EAEAFCE200E00BBF02C0079047
:1002F0000D92A030B107D9F727E0A0E0B3E001C02C
:100300001D92A537B207E1F711E0C6E6D1E000E0A3
:1003100006C021970109802FFE010E943B16C536B9
:10032000D10780E00807A9F70E949C0F0C940014E5
:100330000C9400000895CF92DF92EF92FF920F93FA
:100340001F93CF93DF936C01EB017B01E40EF51E4D
:1003500000E010E0CE15DF0561F06991D601ED9166
:10036000FC910190F081E02DC6011995080F191F2D
:10037000F1CFC801DF91CF911F910F91FF90EF90C6
:10038000DF90CF9008950F931F93CF93DF93EC01ED
:1003900088819981009729F02A813B8126173707A8
:1003A00088F48B016F5F7F4F0E942415009761F0E6
:1003B000998388831B830A832C813D81232B11F42D
:1003C000FC01108281E001C080E0DF91CF911F919C
:1003D0000F910895EF92FF920F931F93CF93DF93A6
:1003E0006115710511F480E01CC041155105C1F083
:1003F0007B01EC018C819D818A01080F191FB801D6
:10040000CE010E94C301882371F3288139818C8138
:100410009D81B701820F931F0E9412161D830C83CA
:1004200081E0DF91CF911F910F91FF90EF900895A0
:10043000CF93DF93EC0188819981009711F00E949E
:100440009B14198218821D821C821B821A82DF91E2
:10045000CF910895EF92FF920F931F93CF93DF9365
:10046000EC017B018A01BA010E94C301811104C021
:10047000CE010E94180207C01D830C83B70188813A
:1004800099810E941216CE01DF91CF911F910F9199
:10049000FF90EF900895CF93DF931F921F92CDB7F7
:1004A000DEB7FC011182108213821282158214823F
:1004B000168269831A82BE016F5F7F4FFB01019034
:1004C0000020E9F73197AF01461B570B0E942A0223
:1004D0000F900F90DF91CF9108956F927F928F923E
:1004E0009F92AF92BF92CF92DF92EF92FF920F93C3
:1004F0001F93CF93DF9381E08093E8060E94160C50
:100500000091D8061091D9062091DA063091DB06C9
:10051000AB01BC01401B510B620B730B8091E406D5
:100520009091E506A0E0B0E084179507A607B7070D
:1005300008F0DFC0C0E08091E206C81730F0712CEF
:10054000812C912C5401839440C0E091DE06F091FF
:10055000DF06EC0FF11D62E080810E941A0ACF5F76
:10056000EACFC62DD0E0E091DE06F091DF06EC0F79
:10057000FD1F80810E94C2092496CC0FDD1FC45844
:10058000D94F892B09F04BC0888199818C299D29ED
:100590009983888363948091E206681610F3E09152
:1005A000E006F091E106E00FF11F61E080810E941A
:1005B000EB098091E0069091E106FC01E00FF11F4C
:1005C00060E080810E941A0A73948091E306781695
:1005D00058F5072D10E0E091E006F091E106E00FFC
:1005E000F11F61E080810E941A0AE091E006F0911B
:1005F000E106E00FF11F60E080810E94EB09D50168
:10060000C401072C04C0880F991FAA1FBB1F0A949E
:10061000D2F76C017C01E094F094612CBCCF88810E
:1006200099818E219F21B4CFCCE7D6E0FE018FEFD8
:100630009FEF278D30A1232B21F4148E968F858F69
:1006400011A2369626E0E83BF20799F7F12C96E0E6
:10065000D92E8091E206F81650F5E12C0F2D10E00E
:10066000000F111F0C57194F2091E306E216E8F412
:10067000F801608171810E2C02C0769567950A940D
:10068000E2F76170F29E900111242E0D311DECE70E
:10069000F6E080E0458D568D2417350709F45AC0E1
:1006A0008F5F36968A30B1F738C0F394D2CF10E01E
:1006B00089A1811111E02696F6E0C83BDF07C1F75A
:1006C0000E94160C6093D8067093D9068093DA06C0
:1006D0009093DB06112369F080919D06882349F0F1
:1006E00080919B0690919C06019719F48091980641
:1006F00003C01092E80680E080932803DF91CF9139
:100700001F910F91FF90EF90DF90CF90BF90AF902F
:100710009F908F907F906F9008956623E9F0ECE7AB
:10072000F6E080E090E0448D411118C0E091DC06D5
:10073000F091DD06E20FF31F4081D89EF001D99EB3
:10074000F00D1124E458F94F448F368F258F10A2F5
:10075000178E61E00E945107E39486CF019636968A
:100760008A30910501F7F8CFCF93DF93EC01FB01BD
:100770008617970761F0608171816115710529F015
:10078000448155810E942A0202C00E941802CE01B3
:10079000DF91CF910895FC01808191810C949B148D
:1007A000CF93DF93CDB7DEB727970FB6F894DEBFB0
:1007B0000FBECDBF60912803633209F44FC0809112
:1007C000FC069091FD06029768F4CE0101960E9406
:1007D0004B024D815E8169817A8188EF96E00E94AB
:1007E000EA0138C0CE0101960E944B028091F806C2
:1007F0009091F9060097B1F04091FA065091FB06EE
:100800002D813E814217530758F069817A810E94F9
:1008100012168D819E819093FD068093FC0618C070
:100820000E949B1489819A819093F9068093F8061F
:100830008B819C819093FB068093FA068D819E812B
:100840009093FD068093FC061A8219821C821B82FB
:100850001E821D82CE0101960E94CB0327960FB601
:10086000F894DEBF0FBECDBFDF91CF910895FC019C
:1008700011821082138212821582148216826115EF
:10088000710551F0FB0101900020E9F73197AF01AC
:10089000461B570B0C942A0208958F929F92AF9299
:1008A000BF92CF92DF92EF92FF920F931F93CF935D
:1008B000DF93CDB7DEB7E6970FB6F894DEBF0FBE75
:1008C000CDBFC0902703D12CE12CF12C19A28E01B1
:1008D0000F5D1F4F3AE0832E912CA12CB12CC70144
:1008E000B601A50194010E9419168C2D9AE0299F4A
:1008F00080191124015011098A3014F4805D01C05F
:10090000895CF801808369017A01232B242B252B34
:1009100031F70115110561F001900020E9F73197D9
:10092000AF01401B510BB8018BEB95E00E949B017E
:100930006DE08BEB95E00E94C70A6AE08BEB95E0D7
:100940000E94C70A10912703113009F4B1C038F092
:10095000123009F4D6C0133009F4E1C0E9C1809126
:1009600028038823B9F040E050E061EF72E088EF9F
:1009700096E00E942A0281E0809300021092010218
:100980001092020280932703809303020E94D003F7
:100990000E94DB0780910602882309F4C9C1809177
:1009A0000002882309F444C087E696E00E94F80C10
:1009B0008823F1F11092000281E0809301021092ED
:1009C000020287E696E00E94290D0E94DB076BE792
:1009D00072E0CE0101960E94370460E070E0CE0123
:1009E00001960E94EE07CE0101960E94CB03009172
:1009F0007A0610917B06F80101900020E9F7C80102
:100A00008E1B9F0B41969695879561E00E94AC07DF
:100A10000115110569F0F80101900020E9F73197FF
:100A2000AF01401B510BB8018BEE96E00E949B0179
:100A300080910102882331F087E696E00E94F80C4D
:100A400081117AC080910202882309F471C187E67E
:100A500096E00E94F80C882309F46AC181E0809333
:100A60000002109201021092020287E696E00E94B4
:100A7000290D0E94DB076DE972E0CE0101960E940C
:100A8000370460E070E0CE0101960E94EE07CE01CF
:100A900001960E94CB036AEA72E0CE0101960E94A1
:100AA000370461E070E0CE0101960E94EE0772C04B
:100AB00080912803882321F00E94D0031093030221
:100AC00080910302882331F08DE596E00E94F80CB6
:100AD000811165C00E941C08882309F429C11A826B
:100AE00019821C821B821E821D821F8268EF76E0A3
:100AF000CE0101960E94B403CE0101960E944C07DC
:100B000049C00E941C0880910502882309F410C185
:100B100083E596E00E94F80C811171C009C18091B3
:100B20000402882331F089E496E00E94F80C8111D8
:100B3000D3C00E941C08FCC0109200021092010257
:100B400081E08093020287E696E00E94290D0E94D0
:100B5000DB0766E872E0CE0101960E94370460E090
:100B600070E0CE0101960E94EE07CE0101960E9430
:100B7000CB0360E972E0CE0101960E94370461E088
:100B800070E0CE0101960E94EE07CE0101960E9410
:100B9000CB0358CFCE0101960E94CB03C9C08DE58F
:100BA00096E00E94290D0E94DB076AEB72E0CE01FD
:100BB00001960E94370460E070E0CE0101960E9429
:100BC000EE07CE0101960E94CB031A8219821C8285
:100BD0001B821E821D821F8268EF76E0CE01019685
:100BE0000E94B40361E070E0CE0101960E94EE071E
:100BF000CE0101960E94CB03109203026BCF81E0DD
:100C00008093050283E596E00E94290D6BEC72E06B
:100C1000CE0101960E94370460E070E0CE0101969B
:100C20000E94EE07CE0101960E94CB031AA619A6D8
:100C30001CA61BA61EA61DA61FA661E776E0CE0178
:100C400089960E94B4036BED72E0CE0101960E947A
:100C500037041BA21AA21DA21CA21FA21EA218A624
:100C6000BE016F5F7F4FCE0182960E94B4034DA5F7
:100C70005EA569A57AA5CE0182960E94EA0181113E
:100C800004C0CE0182960E94180219AA18AA1BAAB3
:100C90001AAA1DAA1CAA1EAABE016E5D7F4FCE0114
:100CA000C0960E94B40361E070E0CE01C0960E943D
:100CB000EE07CE01C0960E94CB03CE0182960E9421
:100CC000CB03CE0101960E94CB03CE0189960E94F0
:100CD000CB03109205022CC011E01093040289E4AA
:100CE00096E00E94290D0E94DB076FED72E0CE01B5
:100CF00001960E94370460E070E0CE0101960E94E8
:100D0000EE07CE0101960E94CB036CEE72E0CE019D
:100D100001960E94370461E070E0CE0101960E94C6
:100D2000EE07CE0101960E94CB031093040201CF7F
:100D3000E6960FB6F894DEBF0FBECDBFDF91CF9120
:100D40001F910F91FF90EF90DF90CF90BF90AF90E9
:100D50009F908F90089596E0899FD0011124A45808
:100D6000B94F90967C936E935F9791E091969C9388
:100D700091979091E806E091E906F091EA069923AF
:100D800039F0309751F0811108C08091980604C065
:100D9000309719F05C968C911994089585ED8093A5
:100DA000BC008091BC0084FDFCCF1092010308952B
:100DB00090E0FC013197E131F10508F04AC0882745
:100DC000EE58FF4F8F4F0C943B16809180008F7729
:100DD00003C0809180008F7D80938000089584B54A
:100DE0008F7702C084B58F7D84BD08958091B00057
:100DF0008F7703C08091B0008F7D8093B0000895FD
:100E0000809190008F7707C0809190008F7D03C004
:100E100080919000877F8093900008958091A0003A
:100E20008F7707C08091A0008F7D03C08091A000C4
:100E3000877F8093A0000895809120018F7707C05D
:100E4000809120018F7D03C080912001877F809356
:100E500020010895CF93DF93EC0189E192E099831B
:100E6000888381E0888B1F861E861A861B861C86D7
:100E70001D860E94160C6E837F8388879987DA8B84
:100E8000C98B1A821B821C821D826A877B878C8792
:100E90009D87DF91CF910895BC0181E796E00C9486
:100EA000B4030F931F93CF93DF93C82FD62F86E001
:100EB000C89FF0011124E458F94F11A2878D90A129
:100EC00081309105D9F040F082309105A9F1039766
:100ED000F1F560E070E034C06130C9F561E070E0C8
:100EE0008C2F0E94AB060E94160C6093D406709360
:100EF000D5068093D6069093D70629C00E94160C7B
:100F00000091D4061091D5062091D6063091D706CF
:100F1000AB01BC01401B510B620B730B8091E606C9
:100F20009091E706A0E0B0E084179507A607B70701
:100F300018F462E070E004C0D11109C063E070E011
:100F40008C2FDF91CF911F910F910C94AB06DF9105
:100F5000CF911F910F910895CF93DF93CDB7DEB757
:100F600028970FB6F894DEBF0FBECDBF98E0EDE036
:100F7000F2E0DE01119601900D929A95E1F79091C1
:100F8000F306961710F46FEF690FFE013196E60F26
:100F9000F11DE60FF11D6081680F606840E08BEE87
:100FA00096E028960FB6F894DEBF0FBECDBFDF9156
:100FB000CF910C94B70D40E061E08BEE96E00E947B
:100FC000B70D8AE39FE10197F1F78091F40688233A
:100FD00021F060E080E00C94AC0708950F931F931C
:100FE000CF93DF938C01FC012481358180E190E077
:100FF000821B930B969587950E94AC07C0E0D0E0CA
:10100000F80184819581C817D90788F4808191817E
:10101000009729F0FC01EC0FFD1F608101C060E02A
:1010200041E08BEE96E00E94B70D2196E9CFDF916B
:10103000CF911F910F91089580912803833229F554
:1010400080912703813089F050F08230A1F0833005
:10105000C1F41092270381E08093060212C081E060
:1010600080932703109206020CC092E0909327030E
:101070008093050206C083E08093270381E080937C
:1010800004020E94DB0781E0089580E00895CF9379
:10109000DF93A0EFB5E0FD01C191D191209741F020
:1010A00049895A89EC0129893A894217530711F174
:1010B000D6E0EE30FD0781F720E030E04D915D9104
:1010C000452B89F4220F331FF901E352FA4F948B19
:1010D000838B80910E0690910F06019690930F06D8
:1010E00080930E0607C02F5F3F4F2F30310531F739
:1010F00080E001C081E0DF91CF9108951F920F92AF
:101100000FB60F9211240BB60F922F933F934F936C
:101110005F936F937F938F939F93AF93BF93EF935F
:10112000FF938091B900887F803609F49CC068F5F0
:10113000883209F45BC090F4803109F454C038F46B
:10114000882309F4EFC0883009F44DC0EFC088311E
:1011500009F44CC0803209F45DC0E8C0803409F461
:1011600068C048F4803309F455C0883309F0DEC004
:1011700080930003D1C0803509F44FC0883509F44D
:101180005DC0883409F0D2C0CFC0883909F4C0C02E
:10119000A8F4883709F467C038F4883609F463C0C6
:1011A000803709F460C0C2C0883809F4B1C0803902
:1011B00009F45FC0803809F0B9C05BC0803B09F416
:1011C00081C038F4803A09F466C0883A09F47AC0DC
:1011D000ADC0803C09F4A0C0883C09F49DC0883BA8
:1011E00009F483C0A3C08091260310C09091250309
:1011F00080912403981770F5E091250381E08E0F0C
:1012000080932503F0E0EC5FFC4F80818093BB006E
:1012100085EC7FC08093000387C0E091250381E0C7
:101220008E0F809325038091BB00F0E0EC5FFC4FB4
:101230008083909125038091240367C0E09125036A
:1012400081E08E0F809325038091BB00F0E0EC5F7E
:10125000FC4F808380910303811166C081E08093FD
:10126000020384EA5AC083E080930103109241078D
:10127000CFCF80914107803208F04AC0E09141070A
:1012800081E08E0F809341078091BB00F0E0EF5D1D
:10129000F84F8083BDCF80914107803230F4E091D8
:1012A0004107F0E0EF5DF84F10820E94CE0660919A
:1012B000410770E081E297E0E0E0F0E019951092DC
:1012C00041072AC084E08093010310922007109206
:1012D0001F07E0E0F0E0199580911F07811105C01C
:1012E00081E080931F071092FF06E091200781E0C4
:1012F0008E0F80932007F0E0E150F94F80818093BA
:10130000BB009091200780911F07981708F480CFA9
:1013100085E88093BC000AC085EC8093BC001092E5
:10132000010304C0109200030E94CE06FF91EF91CA
:10133000BF91AF919F918F917F916F915F914F91ED
:101340003F912F910F900BBE0F900FBE0F901F90EB
:101350001895613298F420910103243089F4609348
:101360001F07282FAFEFB6E0FC018E2F821B8617D8
:1013700018F481918D93F9CF80E0089581E008956C
:1013800082E00895CF93DF93282F30E0F901EC57E6
:10139000FD4F8491F901E25CFD4FD491F901E850D1
:1013A000FE4FC491CC2391F081110E94D806EC2FFE
:1013B000F0E0EE0FFF1FE252FE4FA591B491EC91C9
:1013C000ED2381E090E021F480E002C080E090E035
:1013D000DF91CF9108951F93CF93DF93282F30E0B3
:1013E000F901EC57FD4F8491F901E25CFD4FD49176
:1013F000F901E850FE4FC491CC23C1F0162F8111A2
:101400000E94D806EC2FF0E0EE0FFF1FEC53FE4FCA
:10141000A591B4919FB7F894111104C08C91D09507
:10142000D82302C0EC91DE2BDC939FBFDF91CF91DC
:101430001F910895CF93DF9390E0FC01E25CFD4F94
:101440002491FC01E850FE4F8491882361F190E0E3
:10145000880F991FFC01E655FE4FC591D491FC0100
:10146000EC53FE4FA591B491611109C09FB7F89458
:101470008881209582238883EC912E230BC06230D3
:1014800061F49FB7F8948881322F30958323888345
:10149000EC912E2B2C939FBF06C08FB7F894E88158
:1014A0002E2B28838FBFDF91CF910895CF92DF92AB
:1014B000EF92FF92CF93DF936B017C010E94F10BBF
:1014C000EB01C114D104E104F10479F00E94F10BA5
:1014D0006C1B7D0B683E7340A0F381E0C81AD108F5
:1014E000E108F108C851DC4FECCFDF91CF91FF90BC
:1014F000EF90DF90CF900895089581E090E03091D3
:10150000450720914407321710F480E090E0919550
:101510008195910908958091450790914407891715
:1015200030F48F5F8093450780E090E008958FEF5F
:101530009FEF08958091440790E020914507821B1A
:10154000910908950F931F93FC010285138524854B
:101550003585401B510B620B730B77FD02C08089F0
:1015600001C080E01F910F910895FC0142835383D5
:101570006483758386819781A085B185480F591F43
:101580006A1F7B1F428753876487758708950F936F
:101590001F93CF93DF93FC01A685B7858D01005C77
:1015A0001F4FE8018881998101968F739927AD01BA
:1015B0004E5B5F4FEA012881398128173907D1F343
:1015C000E80128813981A20FB31F6C93A685B785E6
:1015D000A05CBF4F11969C938E93A689B7892C91DE
:1015E00081E090E0078C02C0880F991F0A94E2F70F
:1015F000822B8C9381E081A30488F589E02D808182
:101600008064808381E090E0DF91CF911F910F9102
:101610000895FC0181A1882329F0A489B5898C91C2
:1016200086FFFBCF11A20895FC01A485B585FD01BD
:10163000E05CFF4F208131813296808191812817B3
:10164000390779F080819181A80FB91F8C91208191
:1016500031812F5F3F4F2F7333273183208390E0F9
:1016600008958FEF9FEF0895DC011C96ED91FC919A
:101670001D97DF01A05CBF4F2D913C9111971296F1
:101680008D919C9111972817390739F08D919C9174
:10169000E80FF91F808190E008958FEF9FEF089584
:1016A000FC0124853585F901E05CFF4F8081918143
:1016B000329620813181821B930B8F739927089575
:1016C0008BEB95E00E94500B81E195E00E94500B5E
:1016D00087E694E00E94500B8DEB93E00C94500B46
:1016E000FB01E05CFF4F20813181DB01AE5BBF4F2E
:1016F0004D915C912F5F3F4F2F7333274217530754
:1017000041F040815181DB01A40FB51F8C933183DF
:1017100020830895CF92DF92EF92FF920F931F9351
:10172000CF93DF937C01CB018A01209167072223AD
:1017300089F0EB016B01C40ED51ECC15DD0569F0F7
:101740006991D701ED91FC910190F081E02DC701E5
:101750001995F3CF642F0E94A909C801DF91CF9199
:101760001F910F91FF90EF90DF90CF900895CF934E
:10177000DF931F92CDB7DEB76983209167072223DD
:10178000D1F020914307203240F021E030E0FC010D
:101790003383228380E090E015C080914207E82FD8
:1017A000F0E0E95BF84F998190838F5F8093420767
:1017B0008093430705C061E0CE0101960E94A9090C
:1017C00081E090E00F90DF91CF910895862F0C94E7
:1017D000C209862F642F0C94EB09862F642F0C947A
:1017E0001A0A3FB7F89480916D0790916E07A09107
:1017F0006F07B091700726B5A89B05C02F3F19F061
:101800000196A11DB11D3FBFBA2FA92F982F882780
:10181000820F911DA11DB11DBC01CD0142E0660FDB
:10182000771F881F991F4A95D1F708952FB7F8940D
:101830006091690770916A0780916B0790916C07BE
:101840002FBF08958F929F92AF92BF92CF92DF9257
:10185000EF92FF920F931F93CF93DF93EC01EE85EE
:10186000FF85309709F019950E94160C4B015C0119
:101870008E016E012EE1C20ED11CE12CF12C89A942
:101880009AA9E816F9060CF10E94160C6E837F8364
:10189000888799870A811B812C813D81DC01CB01DE
:1018A000800F911FA21FB31F8A879B87AC87BD87BC
:1018B000DF91CF911F910F91FF90EF90DF90CF902C
:1018C000BF90AF909F908F900895D80153968D91BF
:1018D0009C9154970097C1F0BFEFEB1AFB0ADC0113
:1018E000ED91FC910280F381E02DB501A4011995E1
:1018F000882351F0F80183899489DC01ED91FC91F2
:101900000480F581E02D19950E5F1F4FC016D1069A
:1019100009F0B5CFB9CF0F931F93CF93DF93EC01AD
:10192000EE85FF85309709F019950E94160C6E839D
:101930007F83888799870A811B812C813D81DC0107
:10194000CB01800F911FA21FB31F8A879B87AC8793
:10195000BD87DF91CF911F910F9108951F920F9234
:101960000FB60F9211242F933F938F939F93AF93B2
:10197000BF938091690790916A07A0916B07B0911E
:101980006C073091680723E0230F2D3720F4019670
:10199000A11DB11D05C026E8230F0296A11DB11D92
:1019A000209368078093690790936A07A0936B0759
:1019B000B0936C0780916D0790916E07A0916F07AF
:1019C000B09170070196A11DB11D80936D07909392
:1019D0006E07A0936F07B0937007BF91AF919F916F
:1019E0008F913F912F910F900FBE0F901F901895E0
:1019F000CF92DF92EF92FF921F93CF93DF93FC0180
:101A000010851123E1F0EC018185811115C00E9440
:101A1000160CCC80DD80EE80FF80DC01CB018C19C0
:101A20009D09AE09BF09C880D980EA80FB808C156A
:101A30009D05AE05BF0518F01886198601C010E097
:101A4000812FDF91CF911F91FF90EF90DF90CF908A
:101A50000895FC014481558166817781808191815F
:101A6000A281B381840F951FA61FB71F848395831E
:101A7000A683B78381E0808711860895CF93FC0108
:101A8000C48121E020936707C09346071092420764
:101A9000109243078485682B89E293E00E94B70B7C
:101AA00090914307913208F041C080910103811168
:101AB000FCCF82E08093010381E0809303038FEFEA
:101AC000809300031092250390932403A7E4B7E0CA
:101AD000E4E0F3E080E0981721F02D9121938F5FEF
:101AE000FACF1092260380912603CC0FC82BC09307
:101AF000260380910203813041F410920203809109
:101B000026038093BB0085EC01C085EE8093BC006A
:101B1000809101038230E1F3809100038F3F31F027
:101B200080910003803211F08091000310924207EF
:101B30001092430710926707CF9108950F931F9358
:101B4000CF938C01C62F0E943E0D6C2F6460C8019C
:101B50000E943E0D6C2F6B7FC8010E943E0D82ECEF
:101B600090E00197F1F7CF911F910F9108950F9396
:101B70001F93CF93DF938C01C62FD42F607F642BEC
:101B80000E949E0D80E1C89FB00111246D2BC801F9
:101B9000DF91CF911F910F910C949E0D41E00E9417
:101BA000B70D81E090E008951F920F920FB60F924B
:101BB00011240BB60F922F933F938F939F93EF9324
:101BC000FF93209175033091760380917703909174
:101BD00078032817390731F4809131018F7D809384
:101BE000310114C0E0917703F0917803EB5CFC4F76
:101BF0002081809177039091780301968F739927C4
:101C0000909378038093770320933601FF91EF91AF
:101C10009F918F913F912F910F900BBE0F900FBE10
:101C20000F901F9018951F920F920FB60F921124CC
:101C30000BB60F922F933F938F939F93EF93FF9346
:101C400020911F043091200480912104909122045E
:101C50002817390731F48091D1008F7D8093D1000E
:101C600014C0E0912104F0912204E152FC4F208144
:101C7000809121049091220401968F73992790936B
:101C80002204809321042093D600FF91EF919F912D
:101C90008F913F912F910F900BBE0F900FBE0F9021
:101CA0001F9018951F920F920FB60F9211240BB62A
:101CB0000F922F933F938F939F93EF93FF932091D6
:101CC000C9043091CA048091CB049091CC042817A8
:101CD000390731F48091C9008F7D8093C90014C009
:101CE000E091CB04F091CC04E757FB4F2081809129
:101CF000CB049091CC0401968F7399279093CC04D8
:101D00008093CB042093CE00FF91EF919F918F9110
:101D10003F912F910F900BBE0F900FBE0F901F9011
:101D200018951F920F920FB60F9211240BB60F92B7
:101D30002F933F938F939F93EF93FF93209173057E
:101D400030917405809175059091760528173907B3
:101D500031F48091C1008F7D8093C10014C0E09167
:101D60007505F0917605ED5CFA4F2081809175053F
:101D70009091760501968F739927909376058093BD
:101D800075052093C600FF91EF919F918F913F9130
:101D90002F910F900BBE0F900FBE0F901F901895B4
:101DA0001F920F920FB60F9211240BB60F922F9322
:101DB0003F934F935F936F937F938F939F93AF93D3
:101DC000BF93EF93FF938091300182FD07C0809114
:101DD000360169E773E00E94700B02C08091360102
:101DE000FF91EF91BF91AF919F918F917F916F91F3
:101DF0005F914F913F912F910F900BBE0F900FBEAF
:101E00000F901F9018951F920F920FB60F921124EA
:101E10000BB60F922F933F934F935F936F937F93E4
:101E20008F939F93AF93BF93EF93FF938091D000D5
:101E300082FD07C08091D60063E274E00E94700BBF
:101E400002C08091D600FF91EF91BF91AF919F9119
:101E50008F917F916F915F914F913F912F910F9053
:101E60000BBE0F900FBE0F901F9018951F920F92F0
:101E70000FB60F9211240BB60F922F933F934F93EF
:101E80005F936F937F938F939F93AF93BF93EF93E2
:101E9000FF938091C80082FD07C08091CE006DEC59
:101EA00074E00E94700B02C08091CE00FF91EF9110
:101EB000BF91AF919F918F917F916F915F914F9162
:101EC0003F912F910F900BBE0F900FBE0F901F9060
:101ED00018951F920F920FB60F9211240BB60F9206
:101EE0002F933F934F935F936F937F938F939F9322
:101EF000AF93BF93EF93FF938091C00082FD07C023
:101F00008091C60067E775E00E94700B02C0809167
:101F1000C600FF91EF91BF91AF919F918F917F91FB
:101F20006F915F914F913F912F910F900BBE0F904A
:101F30000FBE0F901F901895789484B5826084BD71
:101F400084B5816084BD85B5826085BD85B58160BD
:101F500085BD80916E00816080936E00109281003B
:101F600080918100826080938100809181008160F6
:101F700080938100809180008160809380008091B7
:101F8000B10084608093B1008091B0008160809343
:101F9000B0008091910082608093910080919100C7
:101FA0008160809391008091900081608093900087
:101FB0008091A10082608093A1008091A100816046
:101FC0008093A1008091A00081608093A000809107
:101FD00021018260809321018091210181608093A1
:101FE00021018091200181608093200180917A00FD
:101FF000846080937A0080917A00826080937A0076
:1020000080917A00816080937A0080917A00806864
:1020100080937A001092C100E091CF05F091D00535
:1020200081E090E09C010090DB0502C0220F331F8D
:102030000A94E2F72083E091CB05F091CC05108261
:10204000E091CD05F091CE0520E120831092DC05D2
:10205000E091D105F091D20540819C010090D70517
:1020600002C0220F331F0A94E2F7242B2083E09151
:10207000D105F091D20540819C010090D80502C0A5
:10208000220F331F0A94E2F7242B2083E091D1051D
:10209000F091D20540819C010090D90502C0220F29
:1020A000331F0A94E2F7242B2083E091D105F091AD
:1020B000D20520810090DA0502C0880F991F0A948A
:1020C000E2F780958223808310924507109244079F
:1020D00010924207109243071092010381E080930F
:1020E00003031092020361E084E10E94EB0961E0C6
:1020F00085E10E94EB098091B9008E7F8093B90041
:102100008091B9008D7F8093B90088E48093B800F6
:1021100085E48093BC001092F0068091F606823030
:1021200018F098E09093F0068093F30662E370E075
:1021300080E090E00E94560A6091F7068BEE96E0F0
:102140000E943E0D68EE73E080E090E00E94560A27
:1021500060E38BEE96E00E949E0DCAE4D6E4CE01C9
:102160000197F1F760E38BEE96E00E949E0D2197B8
:10217000F1F760E38BEE96E00E949E0D82E592E01F
:102180000197F1F760E28BEE96E00E949E0D609160
:10219000F006606240E08BEE96E00E94B70D84E0AE
:1021A0008093F10640E06CE08BEE96E00E94B70D64
:1021B0000E94DB0782E08093F20640E066E08BEE4F
:1021C00096E00E94B70D40E062E08BEE96E00E9440
:1021D000B70D8AE39FE10197F1F788E08093F70656
:1021E00060E08BEE96E00E943E0D8DE494E09093CB
:1021F00032068093310682E3C82ED12CE12CF12CDB
:10220000C0922506D0922606E0922706F092280674
:102210008091290690912A06A0912B06B0912C0658
:10222000C296A11DB11D80932D0690932E06A093FA
:102230002F06B093300683E296E00E9447088DE6B1
:1022400092E090931F0680931E06C0921206D092D1
:102250001306E0921406F0921506809116069091EE
:102260001706A0911806B0911906C296A11DB11DBE
:1022700080931A0690931B06A0931C06B0931D062C
:1022800080E196E00E94470898EEC92E93E0D92E8F
:10229000E12CF12CC0926706D0926806E0926906A4
:1022A000F0926A060E94160C60936B0670936C069F
:1022B00080936D0690936E06C1E0C0936F061092F6
:1022C0007006C0925D06D0925E06E0925F06F092C4
:1022D00060060E94160C60936106709362068093FC
:1022E000630690936406C093650610926606C092DA
:1022F0005306D0925406E0925506F09256060E947C
:10230000160C609357067093580680935906909365
:102310005A06C0935B0610925C06C0924906D092A2
:102320004A06E0924B06F0924C060E94160C60930F
:102330004D0670934E0680934F0690935006C093BF
:102340005106109252068DED95E00E94220C0E94DB
:10235000600BF9CF81E796E00E94CB0388EF96E00F
:102360000C94CB031F93CF93DF93CDB7DEB72797A2
:102370000FB6F894DEBF0FBECDBF10922C031092A3
:102380002B0388EE93E0A0E0B0E080932D039093C0
:102390002E03A0932F03B093300323E232E0309357
:1023A0002A03209329031092BE051092BD05809345
:1023B000BF059093C005A093C105B093C20563E328
:1023C00072E07093BC056093BB0527E735E030935E
:1023D000C8052093C70523E335E03093CA05209351
:1023E000C90525EC30E03093CC052093CB0524ECD7
:1023F00030E03093CE052093CD0520EC30E03093D3
:10240000D0052093CF0521EC30E03093D205209306
:10241000D10522EC30E03093D4052093D30526EC8F
:1024200030E03093D6052093D50514E01093D705FE
:1024300053E05093D80547E04093D90535E03093F9
:10244000DA0521E02093DB051092140510921305A4
:102450008093150590931605A0931705B093180562
:102460007093120560931105EDECF4E0F0931E05F6
:10247000E0931D05E9E8F4E0F0932005E0931F05E3
:10248000EDECF0E0F0932205E0932105ECECF0E0B8
:10249000F0932405E0932305E8ECF0E0F0932605A3
:1024A000E0932505E9ECF0E0F0932805E09327059B
:1024B000EAECF0E0F0932A05E0932905EEECF0E079
:1024C000F0932C05E0932B0510932D0550932E05CA
:1024D00040932F05309330052093310510926A0404
:1024E0001092690480936B0490936C04A0936D0424
:1024F000B0936E047093680460936704E3E2F4E0C1
:10250000F0937404E0937304EFEDF3E0F09376043A
:10251000E0937504E5EDF0E0F0937804E093770440
:10252000E4EDF0E0F0937A04E0937904E0EDF0E07C
:10253000F0937C04E0937B04E1EDF0E0F0937E0403
:10254000E0937D04E2EDF0E0F0938004E0937F04FB
:10255000E6EDF0E0F0938204E093810410938304AD
:102560005093840440938504309386042093870419
:102570001092C0031092BF038093C1039093C203D3
:10258000A093C303B093C4037093BE036093BD03D1
:1025900089E793E09093CA038093C90385E393E0AE
:1025A0009093CC038093CB0385E391E09093CE038B
:1025B0008093CD0384E391E09093D0038093CF0385
:1025C00080E391E09093D2038093D10381E391E083
:1025D0009093D4038093D30382E391E09093D60346
:1025E0008093D50386E391E09093D8038093D7033B
:1025F0001093D9035093DA034093DB033093DC0349
:102600002093DD0361EF72E088EF96E00E943704CB
:102610001092EE061092ED0687E592E09093EC069C
:102620008093EB061092F40687E28093EF0684E134
:102630008093F5061093F6061092F70610927E0628
:102640001092820610928106109283068DE492E029
:1026500090937D0680937C06ECE7F6E088EB96E0AD
:10266000148E10A2178E11A236968E179F07C1F7EF
:1026700087E692E09093DF068093DE0683E692E0A1
:102680009093E1068093E00684E08093E2068093D5
:10269000E3068BE692E09093DD068093DC068AE009
:1026A00090E09093E5068093E40684EF91E09093A8
:1026B000E7068093E6061092EA061092E906109269
:1026C000D8061092D9061092DA061092DB06109204
:1026D000E80680ED97E0909379068093780682EF84
:1026E00092E090937B0680937A0661EF72E081E737
:1026F00096E00E9437046EEF72E0CE0101960E94D0
:102700003704BE016F5F7F4F81E796E00E94B403FC
:10271000CE0101960E94CB0310926F0610926B06B9
:1027200010926C0610926D0610926E061092700652
:10273000109265061092610610926206109263066E
:10274000109264061092660610925B06109257066D
:10275000109258061092590610925A0610925C0672
:102760001092510610924D0610924E0610924F068E
:10277000109250061092520686E396E00E942A07B5
:1027800083E296E00E942A0780E196E00E942A07F1
:102790008DED95E00E942A0783E492E09093DE0598
:1027A0008093DD0510920F0610920E06E0EFF5E023
:1027B0001192119286E0EE30F807D1F71092DF0502
:1027C0001092E0051092E1051092E2058091E30578
:1027D0009091E405A091E505B091E6058093E705A9
:1027E0009093E805A093E905B093EA0527960FB604
:1027F000F894DEBF0FBECDBFDF91CF911F9108953A
:10280000F8940C9443160F931F93CF93DF93823069
:10281000910510F482E090E0E0917307F091740765
:1028200020E030E0A0E0B0E0309719F14081518124
:102830000281138148175907C8F08417950769F476
:10284000109731F012960C93129713961C9327C091
:10285000009373071093740722C02115310519F0F6
:102860004217530718F49A01BD01EF01DF01F80187
:10287000DBCF21153105F9F0281B390B2430310548
:1028800080F48A819B816115710521F0FB0193839E
:10289000828304C09093740780937307FE0132967D
:1028A00044C0FE01E20FF31F81939193225031093E
:1028B000398328833AC02091710730917207232B06
:1028C00041F42091090230910A023093720720935B
:1028D000710720910702309108022115310541F45A
:1028E0002DB73EB740910B0250910C02241B350BC3
:1028F000E0917107F0917207E217F307A0F42E1B25
:102900003F0B2817390778F0AC014E5F5F4F241753
:10291000350748F04E0F5F1F5093720740937107C1
:102920008193919302C0E0E0F0E0CF01DF91CF917D
:102930001F910F910895CF93DF93009709F481C001
:10294000FC01329713821282A0917307B091740731
:10295000109781F420813181820F931F209171079C
:10296000309172072817390751F5F0937207E093F9
:10297000710767C0ED0120E030E0CE17DF0740F4BB
:102980004A815B819E0141155105F1F0EA01F5CFC5
:10299000D383C28340815181840F951FC817D90703
:1029A00059F488819981840F951F029691838083C1
:1029B0008A819B81938382832115310529F4F093C9
:1029C0007407E09373073DC0E901FB83EA834991F3
:1029D0005991C40FD51FEC17FD0761F480819181D7
:1029E000840F951F0296E9019983888382819381E0
:1029F0009B838A83E0E0F0E012968D919C9113977F
:102A0000009719F0FD01DC01F7CF8D919C91119792
:102A10009D012E5F3F4F820F931F209171073091D0
:102A200072072817390769F4309729F41092740750
:102A30001092730702C013821282B0937207A093A0
:102A40007107DF91CF9108956F927F928F929F923D
:102A5000AF92BF92CF92DF92EF92FF920F931F93AC
:102A6000CF93DF93009789F4CB01DF91CF911F9132
:102A70000F91FF90EF90DF90CF90BF90AF909F901D
:102A80008F907F906F900C940314FC01E60FF71F5A
:102A90009C0122503109E217F30708F4A9C0EC01A8
:102AA000D9010D911C91119706171707B0F0053049
:102AB000110508F49BC0C80104978617970708F40E
:102AC00095C002501109061B170B019311936D93CA
:102AD0007C93CF010E949B1489C05B01A01AB10AAC
:102AE0004C01800E911EA0917307B0917407612C68
:102AF000712CE12CF12C109709F446C08D919C911A
:102B00001197A815B905B1F56C0142E0C40ED11CAE
:102B1000CA14DB0478F14C018A189B08640142E076
:102B2000C40ED11C1296BC9012971396AC91B5E0CE
:102B3000CB16D10440F0B282A38391828082D90166
:102B40006D937C9309C00E5F1F4F800F911FF90199
:102B500091838083EB2DFA2FE114F10431F0D7013A
:102B60001396FC93EE93129741C0F0937407E09391
:102B700073073CC06816790608F43C017D01129683
:102B80000D90BC91A02DB7CF8091710790917207E5
:102B900088169906E1F466167706C8F48091070254
:102BA00090910802009741F48DB79EB740910B02B7
:102BB00050910C02841B950BE817F907C8F4F093A9
:102BC0007207E0937107F901718360830FC0CB0135
:102BD0000E9403147C01009759F0A801BE010E94D5
:102BE0000916CE010E949B14C70104C0CE0102C089
:102BF00080E090E0DF91CF911F910F91FF90EF90D7
:102C0000DF90CF90BF90AF909F908F907F906F900C
:102C10000895FB01DC0102C001900D92415050402B
:102C2000D8F70895FB01DC0101900D920020E1F737
:102C30000895A1E21A2EAA1BBB1BFD010DC0AA1FFD
:102C4000BB1FEE1FFF1FA217B307E407F50720F015
:102C5000A21BB30BE40BF50B661F771F881F991F90
:102C60001A9469F760957095809590959B01AC01D9
:102C7000BD01CF010895EE0FFF1F881F8BBF079086
:102C8000F691E02D199411E0C6E6D1E000E006C00F
:102C9000802FFE010E943B162196011DC736D107E9
:0A2CA00080E00807A9F7F894FFCFC1
:102CAA000100000101010100007507200000004039
:102CBA00001400540000000000B50AA20A8B0C00A0
:102CCA00000000B70B8A0B9A0A8B0A7D0A7C0A005D
:102CDA00000000C70A9B01500B140B340B090B00B0
:102CEA00000000B50AA20A220C00000000ED0BE960
:102CFA000BE60B00000000CE0D9B01000000009ABD
:102D0A00019B01424344453E3F4041313233413405
:102D1A00353642373839432A30234457656C636F56
:102D2A006D6520746F0053656C65637420504300B1
:102D3A007573696E67204B657970616400507265BE
:102D4A0073732023207369676E006166746572204D
:102D5A0073656C656374696E6700496E707574207B
:102D6A005043204E756D6265723A00496E73657202
:102D7A007420436F696E20666F72005043200054BE
:102D8A006F74616C20436F696E733A005068703AD1
:102D9A0020004D5047205069736F6E6574003000F3
:00000001FF
